{
  "contractName": "ClothingSupplyChain",
  "abi": [
    {
      "inputs": [
        {
          "internalType": "address",
          "name": "_supplyChainAddress",
          "type": "address"
        }
      ],
      "stateMutability": "nonpayable",
      "type": "constructor"
    },
    {
      "anonymous": false,
      "inputs": [
        {
          "indexed": true,
          "internalType": "address",
          "name": "user",
          "type": "address"
        },
        {
          "indexed": false,
          "internalType": "string",
          "name": "fertiliser",
          "type": "string"
        },
        {
          "indexed": false,
          "internalType": "string",
          "name": "water",
          "type": "string"
        },
        {
          "indexed": false,
          "internalType": "string",
          "name": "deforestation",
          "type": "string"
        },
        {
          "indexed": false,
          "internalType": "string",
          "name": "biowaste",
          "type": "string"
        }
      ],
      "name": "CottonBatchNo",
      "type": "event"
    },
    {
      "anonymous": false,
      "inputs": [
        {
          "indexed": true,
          "internalType": "address",
          "name": "user",
          "type": "address"
        },
        {
          "indexed": true,
          "internalType": "address",
          "name": "batchNo",
          "type": "address"
        }
      ],
      "name": "CottonHarvested",
      "type": "event"
    },
    {
      "anonymous": false,
      "inputs": [
        {
          "indexed": true,
          "internalType": "address",
          "name": "user",
          "type": "address"
        },
        {
          "indexed": false,
          "internalType": "string",
          "name": "water",
          "type": "string"
        },
        {
          "indexed": false,
          "internalType": "string",
          "name": "electricity",
          "type": "string"
        },
        {
          "indexed": false,
          "internalType": "string",
          "name": "toxicWaste",
          "type": "string"
        }
      ],
      "name": "FabricBatchNo",
      "type": "event"
    },
    {
      "anonymous": false,
      "inputs": [
        {
          "indexed": true,
          "internalType": "address",
          "name": "user",
          "type": "address"
        },
        {
          "indexed": true,
          "internalType": "address",
          "name": "batchNo",
          "type": "address"
        }
      ],
      "name": "FabricManufactured",
      "type": "event"
    },
    {
      "anonymous": false,
      "inputs": [
        {
          "indexed": true,
          "internalType": "address",
          "name": "user",
          "type": "address"
        },
        {
          "components": [
            {
              "internalType": "string",
              "name": "fertiliser",
              "type": "string"
            },
            {
              "internalType": "string",
              "name": "water",
              "type": "string"
            },
            {
              "internalType": "string",
              "name": "deforestation",
              "type": "string"
            },
            {
              "internalType": "string",
              "name": "biowaste",
              "type": "string"
            }
          ],
          "indexed": false,
          "internalType": "struct SupplyChainStorage.cottonHarvester[]",
          "name": "result",
          "type": "tuple[]"
        }
      ],
      "name": "RetrievedAll",
      "type": "event"
    },
    {
      "anonymous": false,
      "inputs": [
        {
          "indexed": false,
          "internalType": "string",
          "name": "_fertiliser",
          "type": "string"
        },
        {
          "indexed": false,
          "internalType": "string",
          "name": "_water",
          "type": "string"
        },
        {
          "indexed": false,
          "internalType": "string",
          "name": "_deforestation",
          "type": "string"
        },
        {
          "indexed": false,
          "internalType": "string",
          "name": "_biowaste",
          "type": "string"
        },
        {
          "indexed": false,
          "internalType": "string",
          "name": "water1",
          "type": "string"
        },
        {
          "indexed": false,
          "internalType": "string",
          "name": "electricity1",
          "type": "string"
        },
        {
          "indexed": false,
          "internalType": "string",
          "name": "toxicWaste1",
          "type": "string"
        }
      ],
      "name": "RetrievedAllDetails",
      "type": "event"
    },
    {
      "anonymous": false,
      "inputs": [
        {
          "indexed": true,
          "internalType": "address",
          "name": "user",
          "type": "address"
        },
        {
          "indexed": true,
          "internalType": "address",
          "name": "batchNo",
          "type": "address"
        }
      ],
      "name": "ShirtManufactured",
      "type": "event"
    },
    {
      "inputs": [
        {
          "internalType": "string",
          "name": "_fertiliser",
          "type": "string"
        },
        {
          "internalType": "string",
          "name": "_water",
          "type": "string"
        },
        {
          "internalType": "string",
          "name": "_deforestation",
          "type": "string"
        },
        {
          "internalType": "string",
          "name": "_biowaste",
          "type": "string"
        }
      ],
      "name": "setCottonHarvester",
      "outputs": [
        {
          "internalType": "address",
          "name": "",
          "type": "address"
        }
      ],
      "stateMutability": "nonpayable",
      "type": "function"
    },
    {
      "inputs": [
        {
          "internalType": "address",
          "name": "_batchNo",
          "type": "address"
        }
      ],
      "name": "getCottonHarvester",
      "outputs": [
        {
          "internalType": "string",
          "name": "_fertiliser",
          "type": "string"
        },
        {
          "internalType": "string",
          "name": "_water",
          "type": "string"
        },
        {
          "internalType": "string",
          "name": "_deforestation",
          "type": "string"
        },
        {
          "internalType": "string",
          "name": "_biowaste",
          "type": "string"
        }
      ],
      "stateMutability": "nonpayable",
      "type": "function"
    },
    {
      "inputs": [],
      "name": "getAllCottonHarvester",
      "outputs": [
        {
          "components": [
            {
              "internalType": "string",
              "name": "fertiliser",
              "type": "string"
            },
            {
              "internalType": "string",
              "name": "water",
              "type": "string"
            },
            {
              "internalType": "string",
              "name": "deforestation",
              "type": "string"
            },
            {
              "internalType": "string",
              "name": "biowaste",
              "type": "string"
            }
          ],
          "internalType": "struct SupplyChainStorage.cottonHarvester[]",
          "name": "result",
          "type": "tuple[]"
        }
      ],
      "stateMutability": "nonpayable",
      "type": "function"
    },
    {
      "inputs": [
        {
          "internalType": "address",
          "name": "batchNo",
          "type": "address"
        }
      ],
      "name": "getAllDetails",
      "outputs": [
        {
          "internalType": "string",
          "name": "_fertiliser",
          "type": "string"
        },
        {
          "internalType": "string",
          "name": "_water",
          "type": "string"
        },
        {
          "internalType": "string",
          "name": "_deforestation",
          "type": "string"
        },
        {
          "internalType": "string",
          "name": "_biowaste",
          "type": "string"
        },
        {
          "internalType": "string",
          "name": "water1",
          "type": "string"
        },
        {
          "internalType": "string",
          "name": "electricity1",
          "type": "string"
        },
        {
          "internalType": "string",
          "name": "toxicWaste1",
          "type": "string"
        }
      ],
      "stateMutability": "nonpayable",
      "type": "function"
    },
    {
      "inputs": [
        {
          "internalType": "address",
          "name": "batchNo",
          "type": "address"
        },
        {
          "internalType": "string",
          "name": "water",
          "type": "string"
        },
        {
          "internalType": "string",
          "name": "electricity",
          "type": "string"
        },
        {
          "internalType": "string",
          "name": "toxicWaste",
          "type": "string"
        }
      ],
      "name": "setFabricDetails",
      "outputs": [
        {
          "internalType": "address",
          "name": "",
          "type": "address"
        }
      ],
      "stateMutability": "nonpayable",
      "type": "function"
    },
    {
      "inputs": [
        {
          "internalType": "address",
          "name": "_batchNo",
          "type": "address"
        }
      ],
      "name": "getFabricDetails",
      "outputs": [
        {
          "internalType": "string",
          "name": "water",
          "type": "string"
        },
        {
          "internalType": "string",
          "name": "electricity",
          "type": "string"
        },
        {
          "internalType": "string",
          "name": "toxicWaste",
          "type": "string"
        }
      ],
      "stateMutability": "nonpayable",
      "type": "function"
    }
  ],
  "bytecode": "0x60806040523480156200001157600080fd5b5060405162001644380380620016448339818101604052810190620000379190620000e8565b806000806101000a81548173ffffffffffffffffffffffffffffffffffffffff021916908373ffffffffffffffffffffffffffffffffffffffff160217905550506200011a565b600080fd5b600073ffffffffffffffffffffffffffffffffffffffff82169050919050565b6000620000b08262000083565b9050919050565b620000c281620000a3565b8114620000ce57600080fd5b50565b600081519050620000e281620000b7565b92915050565b6000602082840312156200010157620001006200007e565b5b60006200011184828501620000d1565b91505092915050565b61151a806200012a6000396000f3fe608060405234801561001057600080fd5b50600436106100625760003560e01c806301209994146100675780632ed4872c146100975780634c6fac63146100ca578063b3d7830d146100fa578063c0b5e2c31461012c578063e12073a01461014a575b600080fd5b610081600480360381019061007c9190610911565b610180565b60405161008e9190610a29565b60405180910390f35b6100b160048036038101906100ac9190610a70565b61028d565b6040516100c19493929190610b25565b60405180910390f35b6100e460048036038101906100df9190610b86565b61039d565b6040516100f19190610a29565b60405180910390f35b610114600480360381019061010f9190610a70565b6104a8565b60405161012393929190610c41565b60405180910390f35b6101346105b1565b6040516101419190610e11565b60405180910390f35b610164600480360381019061015f9190610a70565b6106a1565b6040516101779796959493929190610e33565b60405180910390f35b60008060008054906101000a900473ffffffffffffffffffffffffffffffffffffffff1673ffffffffffffffffffffffffffffffffffffffff166301209994878787876040518563ffffffff1660e01b81526004016101e29493929190610b25565b6020604051808303816000875af1158015610201573d6000803e3d6000fd5b505050506040513d601f19601f820116820180604052508101906102259190610ee8565b90508073ffffffffffffffffffffffffffffffffffffffff163373ffffffffffffffffffffffffffffffffffffffff167fc7a945eadeb39898a4c1353ef35eed5fff8869f98a8214bb39175e776d90b66460405160405180910390a380915050949350505050565b60608060608060008054906101000a900473ffffffffffffffffffffffffffffffffffffffff1673ffffffffffffffffffffffffffffffffffffffff16632ed4872c866040518263ffffffff1660e01b81526004016102ec9190610a29565b600060405180830381865afa158015610309573d6000803e3d6000fd5b505050506040513d6000823e3d601f19601f820116820180604052508101906103329190610f85565b809450819550829650839750505050503373ffffffffffffffffffffffffffffffffffffffff167f55592019d887f159f45b47a1b410685728f4ebd5afe6c0d29e8284ab0c00e1518585858560405161038e9493929190610b25565b60405180910390a29193509193565b60008060009054906101000a900473ffffffffffffffffffffffffffffffffffffffff1673ffffffffffffffffffffffffffffffffffffffff16634c6fac63868686866040518563ffffffff1660e01b81526004016103ff949392919061105c565b6020604051808303816000875af115801561041e573d6000803e3d6000fd5b505050506040513d601f19601f820116820180604052508101906104429190610ee8565b508473ffffffffffffffffffffffffffffffffffffffff163373ffffffffffffffffffffffffffffffffffffffff167fabd64ad5f7c4ee26c3f19142c72f257aeb61ca4894df2d225422e70571b59cb060405160405180910390a3849050949350505050565b606080606060008054906101000a900473ffffffffffffffffffffffffffffffffffffffff1673ffffffffffffffffffffffffffffffffffffffff1663b3d7830d856040518263ffffffff1660e01b81526004016105069190610a29565b600060405180830381865afa158015610523573d6000803e3d6000fd5b505050506040513d6000823e3d601f19601f8201168201806040525081019061054c91906110b6565b8093508194508295505050503373ffffffffffffffffffffffffffffffffffffffff167fb9e379e4b35f5868e12ff4b182f54831e8e37f68e57ca74bc59ee30f651141928484846040516105a293929190610c41565b60405180910390a29193909250565b606060008060009054906101000a900473ffffffffffffffffffffffffffffffffffffffff1673ffffffffffffffffffffffffffffffffffffffff1663c0b5e2c36040518163ffffffff1660e01b8152600401600060405180830381865afa158015610621573d6000803e3d6000fd5b505050506040513d6000823e3d601f19601f8201168201806040525081019061064a9190611335565b90503373ffffffffffffffffffffffffffffffffffffffff167f0a9b3efd2e2d4dd314e4d868d7ae5f24a088586d9c54650009b5eaea244cd29c826040516106929190610e11565b60405180910390a28091505090565b606080606080606080606060008054906101000a900473ffffffffffffffffffffffffffffffffffffffff1673ffffffffffffffffffffffffffffffffffffffff1663e12073a0896040518263ffffffff1660e01b81526004016107059190610a29565b6000604051808303816000875af1158015610724573d6000803e3d6000fd5b505050506040513d6000823e3d601f19601f8201168201806040525081019061074d919061137e565b809750819850829950839a50849b50859c50869d50505050505050507fd22daae24c15e8c869567b4396630459cd8729ab215a58f66795bc9c392697e9878787878787876040516107a49796959493929190610e33565b60405180910390a1919395979092949650565b6000604051905090565b600080fd5b600080fd5b600080fd5b600080fd5b6000601f19601f8301169050919050565b7f4e487b7100000000000000000000000000000000000000000000000000000000600052604160045260246000fd5b61081e826107d5565b810181811067ffffffffffffffff8211171561083d5761083c6107e6565b5b80604052505050565b60006108506107b7565b905061085c8282610815565b919050565b600067ffffffffffffffff82111561087c5761087b6107e6565b5b610885826107d5565b9050602081019050919050565b82818337600083830152505050565b60006108b46108af84610861565b610846565b9050828152602081018484840111156108d0576108cf6107d0565b5b6108db848285610892565b509392505050565b600082601f8301126108f8576108f76107cb565b5b81356109088482602086016108a1565b91505092915050565b6000806000806080858703121561092b5761092a6107c1565b5b600085013567ffffffffffffffff811115610949576109486107c6565b5b610955878288016108e3565b945050602085013567ffffffffffffffff811115610976576109756107c6565b5b610982878288016108e3565b935050604085013567ffffffffffffffff8111156109a3576109a26107c6565b5b6109af878288016108e3565b925050606085013567ffffffffffffffff8111156109d0576109cf6107c6565b5b6109dc878288016108e3565b91505092959194509250565b600073ffffffffffffffffffffffffffffffffffffffff82169050919050565b6000610a13826109e8565b9050919050565b610a2381610a08565b82525050565b6000602082019050610a3e6000830184610a1a565b92915050565b610a4d81610a08565b8114610a5857600080fd5b50565b600081359050610a6a81610a44565b92915050565b600060208284031215610a8657610a856107c1565b5b6000610a9484828501610a5b565b91505092915050565b600081519050919050565b600082825260208201905092915050565b60005b83811015610ad7578082015181840152602081019050610abc565b83811115610ae6576000848401525b50505050565b6000610af782610a9d565b610b018185610aa8565b9350610b11818560208601610ab9565b610b1a816107d5565b840191505092915050565b60006080820190508181036000830152610b3f8187610aec565b90508181036020830152610b538186610aec565b90508181036040830152610b678185610aec565b90508181036060830152610b7b8184610aec565b905095945050505050565b60008060008060808587031215610ba057610b9f6107c1565b5b6000610bae87828801610a5b565b945050602085013567ffffffffffffffff811115610bcf57610bce6107c6565b5b610bdb878288016108e3565b935050604085013567ffffffffffffffff811115610bfc57610bfb6107c6565b5b610c08878288016108e3565b925050606085013567ffffffffffffffff811115610c2957610c286107c6565b5b610c35878288016108e3565b91505092959194509250565b60006060820190508181036000830152610c5b8186610aec565b90508181036020830152610c6f8185610aec565b90508181036040830152610c838184610aec565b9050949350505050565b600081519050919050565b600082825260208201905092915050565b6000819050602082019050919050565b600082825260208201905092915050565b6000610cd582610a9d565b610cdf8185610cb9565b9350610cef818560208601610ab9565b610cf8816107d5565b840191505092915050565b60006080830160008301518482036000860152610d208282610cca565b91505060208301518482036020860152610d3a8282610cca565b91505060408301518482036040860152610d548282610cca565b91505060608301518482036060860152610d6e8282610cca565b9150508091505092915050565b6000610d878383610d03565b905092915050565b6000602082019050919050565b6000610da782610c8d565b610db18185610c98565b935083602082028501610dc385610ca9565b8060005b85811015610dff5784840389528151610de08582610d7b565b9450610deb83610d8f565b925060208a01995050600181019050610dc7565b50829750879550505050505092915050565b60006020820190508181036000830152610e2b8184610d9c565b905092915050565b600060e0820190508181036000830152610e4d818a610aec565b90508181036020830152610e618189610aec565b90508181036040830152610e758188610aec565b90508181036060830152610e898187610aec565b90508181036080830152610e9d8186610aec565b905081810360a0830152610eb18185610aec565b905081810360c0830152610ec58184610aec565b905098975050505050505050565b600081519050610ee281610a44565b92915050565b600060208284031215610efe57610efd6107c1565b5b6000610f0c84828501610ed3565b91505092915050565b6000610f28610f2384610861565b610846565b905082815260208101848484011115610f4457610f436107d0565b5b610f4f848285610ab9565b509392505050565b600082601f830112610f6c57610f6b6107cb565b5b8151610f7c848260208601610f15565b91505092915050565b60008060008060808587031215610f9f57610f9e6107c1565b5b600085015167ffffffffffffffff811115610fbd57610fbc6107c6565b5b610fc987828801610f57565b945050602085015167ffffffffffffffff811115610fea57610fe96107c6565b5b610ff687828801610f57565b935050604085015167ffffffffffffffff811115611017576110166107c6565b5b61102387828801610f57565b925050606085015167ffffffffffffffff811115611044576110436107c6565b5b61105087828801610f57565b91505092959194509250565b60006080820190506110716000830187610a1a565b81810360208301526110838186610aec565b905081810360408301526110978185610aec565b905081810360608301526110ab8184610aec565b905095945050505050565b6000806000606084860312156110cf576110ce6107c1565b5b600084015167ffffffffffffffff8111156110ed576110ec6107c6565b5b6110f986828701610f57565b935050602084015167ffffffffffffffff81111561111a576111196107c6565b5b61112686828701610f57565b925050604084015167ffffffffffffffff811115611147576111466107c6565b5b61115386828701610f57565b9150509250925092565b600067ffffffffffffffff821115611178576111776107e6565b5b602082029050602081019050919050565b600080fd5b600080fd5b600080fd5b6000608082840312156111ae576111ad61118e565b5b6111b86080610846565b9050600082015167ffffffffffffffff8111156111d8576111d7611193565b5b6111e484828501610f57565b600083015250602082015167ffffffffffffffff81111561120857611207611193565b5b61121484828501610f57565b602083015250604082015167ffffffffffffffff81111561123857611237611193565b5b61124484828501610f57565b604083015250606082015167ffffffffffffffff81111561126857611267611193565b5b61127484828501610f57565b60608301525092915050565b600061129361128e8461115d565b610846565b905080838252602082019050602084028301858111156112b6576112b5611189565b5b835b818110156112fd57805167ffffffffffffffff8111156112db576112da6107cb565b5b8086016112e88982611198565b855260208501945050506020810190506112b8565b5050509392505050565b600082601f83011261131c5761131b6107cb565b5b815161132c848260208601611280565b91505092915050565b60006020828403121561134b5761134a6107c1565b5b600082015167ffffffffffffffff811115611369576113686107c6565b5b61137584828501611307565b91505092915050565b600080600080600080600060e0888a03121561139d5761139c6107c1565b5b600088015167ffffffffffffffff8111156113bb576113ba6107c6565b5b6113c78a828b01610f57565b975050602088015167ffffffffffffffff8111156113e8576113e76107c6565b5b6113f48a828b01610f57565b965050604088015167ffffffffffffffff811115611415576114146107c6565b5b6114218a828b01610f57565b955050606088015167ffffffffffffffff811115611442576114416107c6565b5b61144e8a828b01610f57565b945050608088015167ffffffffffffffff81111561146f5761146e6107c6565b5b61147b8a828b01610f57565b93505060a088015167ffffffffffffffff81111561149c5761149b6107c6565b5b6114a88a828b01610f57565b92505060c088015167ffffffffffffffff8111156114c9576114c86107c6565b5b6114d58a828b01610f57565b9150509295989194975092955056fea26469706673582212200d6129e43922348ecf674c983d389678d7138799833f9ca2fbcbb3b1f72ab25b64736f6c634300080b0033",
  "immutableReferences": {},
  "source": "pragma solidity ^0.8.11;\n\nimport \"./SupplyChainStorage.sol\";\n\ncontract ClothingSupplyChain {\n    SupplyChainStorage supplyChainStorage;\n    event CottonHarvested(address indexed user, address indexed batchNo);\n    event CottonBatchNo(\n        address indexed user,\n        string fertiliser,\n        string water,\n        string deforestation,\n        string biowaste\n    );\n    event FabricManufactured(address indexed user, address indexed batchNo);\n    event FabricBatchNo(\n        address indexed user,\n        string water,\n        string electricity,\n        string toxicWaste\n    );\n\n    event RetrievedAllDetails(\n        string _fertiliser,\n        string _water,\n        string _deforestation,\n        string _biowaste,\n        string water1,\n        string electricity1,\n        string toxicWaste1\n    );\n\n    event ShirtManufactured(address indexed user, address indexed batchNo);\n    event RetrievedAll(\n        address indexed user,\n        SupplyChainStorage.cottonHarvester[] result\n    );\n\n    constructor(address _supplyChainAddress) public {\n        supplyChainStorage = SupplyChainStorage(_supplyChainAddress);\n    }\n\n    function setCottonHarvester(\n        string memory _fertiliser,\n        string memory _water,\n        string memory _deforestation,\n        string memory _biowaste\n    ) public returns (address) {\n        address batchNo = supplyChainStorage.setCottonHarvester(\n            _fertiliser,\n            _water,\n            _deforestation,\n            _biowaste\n        );\n\n        emit CottonHarvested(msg.sender, batchNo);\n\n        return (batchNo);\n    }\n\n    function getCottonHarvester(address _batchNo)\n        public\n        returns (\n            string memory _fertiliser,\n            string memory _water,\n            string memory _deforestation,\n            string memory _biowaste\n        )\n    {\n        /* Call Storage Contract */\n        (_fertiliser, _water, _deforestation, _biowaste) = supplyChainStorage\n            .getCottonHarvester(_batchNo);\n        emit CottonBatchNo(\n            msg.sender,\n            _fertiliser,\n            _water,\n            _deforestation,\n            _biowaste\n        );\n        return (_fertiliser, _water, _deforestation, _biowaste);\n    }\n\n    function getAllCottonHarvester()\n        public\n        returns (SupplyChainStorage.cottonHarvester[] memory result)\n    {\n        SupplyChainStorage.cottonHarvester[]\n            memory tempResult = supplyChainStorage.getAllCottonHarvester();\n        emit RetrievedAll(msg.sender, tempResult);\n        return (tempResult);\n    }\n\n    function getAllDetails(address batchNo)\n        public\n        returns (\n            \n            string memory _fertiliser,\n            string memory _water,\n            string memory _deforestation,\n            string memory _biowaste,\n            string memory water1,\n            string memory electricity1,\n            string memory toxicWaste1\n        )\n    {\n        (_fertiliser, _water, _deforestation, _biowaste, water1, electricity1, toxicWaste1) = supplyChainStorage.getAllDetails(\n            batchNo\n        );\n        emit RetrievedAllDetails(_fertiliser, _water, _deforestation, _biowaste, water1, electricity1, toxicWaste1);\n    }\n\n    function setFabricDetails(\n        address batchNo,\n        string memory water,\n        string memory electricity,\n        string memory toxicWaste\n    ) public returns (address) {\n        supplyChainStorage.setFabricDetails(\n            batchNo,\n            water,\n            electricity,\n            toxicWaste\n        );\n\n        emit FabricManufactured(msg.sender, batchNo);\n\n        return (batchNo);\n    }\n\n    function getFabricDetails(address _batchNo)\n        public\n        returns (\n            string memory water,\n            string memory electricity,\n            string memory toxicWaste\n        )\n    {\n        /* Call Storage Contract */\n        (water, electricity, toxicWaste) = supplyChainStorage.getFabricDetails(\n            _batchNo\n        );\n        emit FabricBatchNo(msg.sender, water, electricity, toxicWaste);\n        return (water, electricity, toxicWaste);\n    }\n}\n",
  "sourcePath": "/Users/nicholasong/Documents/GitHub/Candour/contracts/ClothingSupplyChain.sol",
  "compiler": {
    "name": "solc",
    "version": "0.8.11+commit.d7f03943.Emscripten.clang"
  },
  "schemaVersion": "3.4.3",
  "updatedAt": "2022-04-05T08:56:54.663Z",
  "networkType": "ethereum",
  "devdoc": {
    "kind": "dev",
    "methods": {},
    "version": 1
  },
  "userdoc": {
    "kind": "user",
    "methods": {},
    "version": 1
  }
}