{
  "contractName": "SupplyChainStorage",
  "abi": [
    {
      "inputs": [
        {
          "internalType": "uint256",
          "name": "",
          "type": "uint256"
        }
      ],
      "name": "batchNoArray",
      "outputs": [
        {
          "internalType": "address",
          "name": "",
          "type": "address"
        }
      ],
      "stateMutability": "view",
      "type": "function",
      "constant": true
    },
    {
      "inputs": [
        {
          "internalType": "string",
          "name": "_fertiliser",
          "type": "string"
        },
        {
          "internalType": "string",
          "name": "_water",
          "type": "string"
        },
        {
          "internalType": "string",
          "name": "_deforestation",
          "type": "string"
        },
        {
          "internalType": "string",
          "name": "_biowaste",
          "type": "string"
        }
      ],
      "name": "setCottonHarvester",
      "outputs": [
        {
          "internalType": "address",
          "name": "",
          "type": "address"
        }
      ],
      "stateMutability": "nonpayable",
      "type": "function"
    },
    {
      "inputs": [
        {
          "internalType": "address",
          "name": "batchNo",
          "type": "address"
        }
      ],
      "name": "getAllDetails",
      "outputs": [
        {
          "internalType": "string",
          "name": "_fertiliser",
          "type": "string"
        },
        {
          "internalType": "string",
          "name": "_water",
          "type": "string"
        },
        {
          "internalType": "string",
          "name": "_deforestation",
          "type": "string"
        },
        {
          "internalType": "string",
          "name": "_biowaste",
          "type": "string"
        },
        {
          "internalType": "string",
          "name": "water1",
          "type": "string"
        },
        {
          "internalType": "string",
          "name": "electricity1",
          "type": "string"
        },
        {
          "internalType": "string",
          "name": "toxicWaste1",
          "type": "string"
        }
      ],
      "stateMutability": "nonpayable",
      "type": "function"
    },
    {
      "inputs": [
        {
          "internalType": "address",
          "name": "_batchNo",
          "type": "address"
        }
      ],
      "name": "getCottonHarvester",
      "outputs": [
        {
          "internalType": "string",
          "name": "fertiliser",
          "type": "string"
        },
        {
          "internalType": "string",
          "name": "water",
          "type": "string"
        },
        {
          "internalType": "string",
          "name": "deforestation",
          "type": "string"
        },
        {
          "internalType": "string",
          "name": "biowaste",
          "type": "string"
        }
      ],
      "stateMutability": "view",
      "type": "function",
      "constant": true
    },
    {
      "inputs": [],
      "name": "getAllCottonHarvester",
      "outputs": [
        {
          "components": [
            {
              "internalType": "string",
              "name": "fertiliser",
              "type": "string"
            },
            {
              "internalType": "string",
              "name": "water",
              "type": "string"
            },
            {
              "internalType": "string",
              "name": "deforestation",
              "type": "string"
            },
            {
              "internalType": "string",
              "name": "biowaste",
              "type": "string"
            }
          ],
          "internalType": "struct SupplyChainStorage.cottonHarvester[]",
          "name": "result",
          "type": "tuple[]"
        }
      ],
      "stateMutability": "view",
      "type": "function",
      "constant": true
    },
    {
      "inputs": [
        {
          "internalType": "address",
          "name": "_batchNo",
          "type": "address"
        }
      ],
      "name": "getFabricDetails",
      "outputs": [
        {
          "internalType": "string",
          "name": "water",
          "type": "string"
        },
        {
          "internalType": "string",
          "name": "electricity",
          "type": "string"
        },
        {
          "internalType": "string",
          "name": "toxicWaste",
          "type": "string"
        }
      ],
      "stateMutability": "view",
      "type": "function",
      "constant": true
    },
    {
      "inputs": [
        {
          "internalType": "address",
          "name": "batchNo",
          "type": "address"
        },
        {
          "internalType": "string",
          "name": "water",
          "type": "string"
        },
        {
          "internalType": "string",
          "name": "electricity",
          "type": "string"
        },
        {
          "internalType": "string",
          "name": "toxicWaste",
          "type": "string"
        }
      ],
      "name": "setFabricDetails",
      "outputs": [
        {
          "internalType": "address",
          "name": "",
          "type": "address"
        }
      ],
      "stateMutability": "nonpayable",
      "type": "function"
    }
  ],
  "bytecode": "0x608060405234801561001057600080fd5b50611dcf806100206000396000f3fe608060405234801561001057600080fd5b506004361061007d5760003560e01c80638a4a119f1161005b5780638a4a119f14610115578063b3d7830d14610145578063c0b5e2c314610177578063e12073a0146101955761007d565b806301209994146100825780632ed4872c146100b25780634c6fac63146100e5575b600080fd5b61009c60048036038101906100979190611516565b6101cb565b6040516100a9919061162e565b60405180910390f35b6100cc60048036038101906100c79190611675565b6103de565b6040516100dc949392919061172a565b60405180910390f35b6100ff60048036038101906100fa919061178b565b61069e565b60405161010c919061162e565b60405180910390f35b61012f600480360381019061012a919061187c565b61079a565b60405161013c919061162e565b60405180910390f35b61015f600480360381019061015a9190611675565b6107d9565b60405161016e939291906118a9565b60405180910390f35b61017f6109ff565b60405161018c9190611a79565b60405180910390f35b6101af60048036038101906101aa9190611675565b610d81565b6040516101c29796959493929190611a9b565b60405180910390f35b600080600233426040516020016101e3929190611ba4565b6040516020818303038152906040526040516101ff9190611c17565b602060405180830381855afa15801561021c573d6000803e3d6000fd5b5050506040513d601f19601f8201168201806040525081019061023f9190611c64565b60601c9050856001600001908051906020019061025d929190611264565b5084600180019080519060200190610276929190611264565b508360016002019080519060200190610290929190611264565b5082600160030190805190602001906102aa929190611264565b506001600a60008373ffffffffffffffffffffffffffffffffffffffff1673ffffffffffffffffffffffffffffffffffffffff168152602001908152602001600020600082018160000190805461030090611cc0565b61030b9291906112ea565b50600182018160010190805461032090611cc0565b61032b9291906112ea565b50600282018160020190805461034090611cc0565b61034b9291906112ea565b50600382018160030190805461036090611cc0565b61036b9291906112ea565b509050506000819080600181540180825580915050600190039060005260206000200160009091909190916101000a81548173ffffffffffffffffffffffffffffffffffffffff021916908373ffffffffffffffffffffffffffffffffffffffff16021790555080915050949350505050565b6060806060806000600a60008773ffffffffffffffffffffffffffffffffffffffff1673ffffffffffffffffffffffffffffffffffffffff16815260200190815260200160002060405180608001604052908160008201805461044090611cc0565b80601f016020809104026020016040519081016040528092919081815260200182805461046c90611cc0565b80156104b95780601f1061048e576101008083540402835291602001916104b9565b820191906000526020600020905b81548152906001019060200180831161049c57829003601f168201915b505050505081526020016001820180546104d290611cc0565b80601f01602080910402602001604051908101604052809291908181526020018280546104fe90611cc0565b801561054b5780601f106105205761010080835404028352916020019161054b565b820191906000526020600020905b81548152906001019060200180831161052e57829003601f168201915b5050505050815260200160028201805461056490611cc0565b80601f016020809104026020016040519081016040528092919081815260200182805461059090611cc0565b80156105dd5780601f106105b2576101008083540402835291602001916105dd565b820191906000526020600020905b8154815290600101906020018083116105c057829003601f168201915b505050505081526020016003820180546105f690611cc0565b80601f016020809104026020016040519081016040528092919081815260200182805461062290611cc0565b801561066f5780601f106106445761010080835404028352916020019161066f565b820191906000526020600020905b81548152906001019060200180831161065257829003601f168201915b505050505081525050905080600001518160200151826040015183606001519450945094509450509193509193565b600083600560000190805190602001906106b9929190611264565b5082600560010190805190602001906106d3929190611264565b5081600560020190805190602001906106ed929190611264565b506005600b60008773ffffffffffffffffffffffffffffffffffffffff1673ffffffffffffffffffffffffffffffffffffffff168152602001908152602001600020600082018160000190805461074390611cc0565b61074e9291906112ea565b50600182018160010190805461076390611cc0565b61076e9291906112ea565b50600282018160020190805461078390611cc0565b61078e9291906112ea565b50905050949350505050565b600081815481106107aa57600080fd5b906000526020600020016000915054906101000a900473ffffffffffffffffffffffffffffffffffffffff1681565b60608060606000600b60008673ffffffffffffffffffffffffffffffffffffffff1673ffffffffffffffffffffffffffffffffffffffff16815260200190815260200160002060405180606001604052908160008201805461083a90611cc0565b80601f016020809104026020016040519081016040528092919081815260200182805461086690611cc0565b80156108b35780601f10610888576101008083540402835291602001916108b3565b820191906000526020600020905b81548152906001019060200180831161089657829003601f168201915b505050505081526020016001820180546108cc90611cc0565b80601f01602080910402602001604051908101604052809291908181526020018280546108f890611cc0565b80156109455780601f1061091a57610100808354040283529160200191610945565b820191906000526020600020905b81548152906001019060200180831161092857829003601f168201915b5050505050815260200160028201805461095e90611cc0565b80601f016020809104026020016040519081016040528092919081815260200182805461098a90611cc0565b80156109d75780601f106109ac576101008083540402835291602001916109d7565b820191906000526020600020905b8154815290600101906020018083116109ba57829003601f168201915b5050505050815250509050806000015181602001518260400151935093509350509193909250565b606060008080549050905060008167ffffffffffffffff811115610a2657610a256113eb565b5b604051908082528060200260200182016040528015610a5f57816020015b610a4c611377565b815260200190600190039081610a445790505b50905060005b600080549050811015610d78576000600a6000808481548110610a8b57610a8a611cf2565b5b9060005260206000200160009054906101000a900473ffffffffffffffffffffffffffffffffffffffff1673ffffffffffffffffffffffffffffffffffffffff1673ffffffffffffffffffffffffffffffffffffffff168152602001908152602001600020604051806080016040529081600082018054610b0b90611cc0565b80601f0160208091040260200160405190810160405280929190818152602001828054610b3790611cc0565b8015610b845780601f10610b5957610100808354040283529160200191610b84565b820191906000526020600020905b815481529060010190602001808311610b6757829003601f168201915b50505050508152602001600182018054610b9d90611cc0565b80601f0160208091040260200160405190810160405280929190818152602001828054610bc990611cc0565b8015610c165780601f10610beb57610100808354040283529160200191610c16565b820191906000526020600020905b815481529060010190602001808311610bf957829003601f168201915b50505050508152602001600282018054610c2f90611cc0565b80601f0160208091040260200160405190810160405280929190818152602001828054610c5b90611cc0565b8015610ca85780601f10610c7d57610100808354040283529160200191610ca8565b820191906000526020600020905b815481529060010190602001808311610c8b57829003601f168201915b50505050508152602001600382018054610cc190611cc0565b80601f0160208091040260200160405190810160405280929190818152602001828054610ced90611cc0565b8015610d3a5780601f10610d0f57610100808354040283529160200191610d3a565b820191906000526020600020905b815481529060010190602001808311610d1d57829003601f168201915b505050505081525050905080838381518110610d5957610d58611cf2565b5b6020026020010181905250508080610d7090611d50565b915050610a65565b50809250505090565b60608060608060608060606000600a60008a73ffffffffffffffffffffffffffffffffffffffff1673ffffffffffffffffffffffffffffffffffffffff168152602001908152602001600020604051806080016040529081600082018054610de890611cc0565b80601f0160208091040260200160405190810160405280929190818152602001828054610e1490611cc0565b8015610e615780601f10610e3657610100808354040283529160200191610e61565b820191906000526020600020905b815481529060010190602001808311610e4457829003601f168201915b50505050508152602001600182018054610e7a90611cc0565b80601f0160208091040260200160405190810160405280929190818152602001828054610ea690611cc0565b8015610ef35780601f10610ec857610100808354040283529160200191610ef3565b820191906000526020600020905b815481529060010190602001808311610ed657829003601f168201915b50505050508152602001600282018054610f0c90611cc0565b80601f0160208091040260200160405190810160405280929190818152602001828054610f3890611cc0565b8015610f855780601f10610f5a57610100808354040283529160200191610f85565b820191906000526020600020905b815481529060010190602001808311610f6857829003601f168201915b50505050508152602001600382018054610f9e90611cc0565b80601f0160208091040260200160405190810160405280929190818152602001828054610fca90611cc0565b80156110175780601f10610fec57610100808354040283529160200191611017565b820191906000526020600020905b815481529060010190602001808311610ffa57829003601f168201915b50505050508152505090506000600b60008b73ffffffffffffffffffffffffffffffffffffffff1673ffffffffffffffffffffffffffffffffffffffff16815260200190815260200160002060405180606001604052908160008201805461107e90611cc0565b80601f01602080910402602001604051908101604052809291908181526020018280546110aa90611cc0565b80156110f75780601f106110cc576101008083540402835291602001916110f7565b820191906000526020600020905b8154815290600101906020018083116110da57829003601f168201915b5050505050815260200160018201805461111090611cc0565b80601f016020809104026020016040519081016040528092919081815260200182805461113c90611cc0565b80156111895780601f1061115e57610100808354040283529160200191611189565b820191906000526020600020905b81548152906001019060200180831161116c57829003601f168201915b505050505081526020016002820180546111a290611cc0565b80601f01602080910402602001604051908101604052809291908181526020018280546111ce90611cc0565b801561121b5780601f106111f05761010080835404028352916020019161121b565b820191906000526020600020905b8154815290600101906020018083116111fe57829003601f168201915b5050505050815250509050816000015198508160200151975081604001519650816060015195508060000151945080602001519350806040015192505050919395979092949650565b82805461127090611cc0565b90600052602060002090601f01602090048101928261129257600085556112d9565b82601f106112ab57805160ff19168380011785556112d9565b828001600101855582156112d9579182015b828111156112d85782518255916020019190600101906112bd565b5b5090506112e6919061139f565b5090565b8280546112f690611cc0565b90600052602060002090601f0160209004810192826113185760008555611366565b82601f106113295780548555611366565b8280016001018555821561136657600052602060002091601f016020900482015b8281111561136557825482559160010191906001019061134a565b5b509050611373919061139f565b5090565b6040518060800160405280606081526020016060815260200160608152602001606081525090565b5b808211156113b85760008160009055506001016113a0565b5090565b6000604051905090565b600080fd5b600080fd5b600080fd5b600080fd5b6000601f19601f8301169050919050565b7f4e487b7100000000000000000000000000000000000000000000000000000000600052604160045260246000fd5b611423826113da565b810181811067ffffffffffffffff82111715611442576114416113eb565b5b80604052505050565b60006114556113bc565b9050611461828261141a565b919050565b600067ffffffffffffffff821115611481576114806113eb565b5b61148a826113da565b9050602081019050919050565b82818337600083830152505050565b60006114b96114b484611466565b61144b565b9050828152602081018484840111156114d5576114d46113d5565b5b6114e0848285611497565b509392505050565b600082601f8301126114fd576114fc6113d0565b5b813561150d8482602086016114a6565b91505092915050565b600080600080608085870312156115305761152f6113c6565b5b600085013567ffffffffffffffff81111561154e5761154d6113cb565b5b61155a878288016114e8565b945050602085013567ffffffffffffffff81111561157b5761157a6113cb565b5b611587878288016114e8565b935050604085013567ffffffffffffffff8111156115a8576115a76113cb565b5b6115b4878288016114e8565b925050606085013567ffffffffffffffff8111156115d5576115d46113cb565b5b6115e1878288016114e8565b91505092959194509250565b600073ffffffffffffffffffffffffffffffffffffffff82169050919050565b6000611618826115ed565b9050919050565b6116288161160d565b82525050565b6000602082019050611643600083018461161f565b92915050565b6116528161160d565b811461165d57600080fd5b50565b60008135905061166f81611649565b92915050565b60006020828403121561168b5761168a6113c6565b5b600061169984828501611660565b91505092915050565b600081519050919050565b600082825260208201905092915050565b60005b838110156116dc5780820151818401526020810190506116c1565b838111156116eb576000848401525b50505050565b60006116fc826116a2565b61170681856116ad565b93506117168185602086016116be565b61171f816113da565b840191505092915050565b6000608082019050818103600083015261174481876116f1565b9050818103602083015261175881866116f1565b9050818103604083015261176c81856116f1565b9050818103606083015261178081846116f1565b905095945050505050565b600080600080608085870312156117a5576117a46113c6565b5b60006117b387828801611660565b945050602085013567ffffffffffffffff8111156117d4576117d36113cb565b5b6117e0878288016114e8565b935050604085013567ffffffffffffffff811115611801576118006113cb565b5b61180d878288016114e8565b925050606085013567ffffffffffffffff81111561182e5761182d6113cb565b5b61183a878288016114e8565b91505092959194509250565b6000819050919050565b61185981611846565b811461186457600080fd5b50565b60008135905061187681611850565b92915050565b600060208284031215611892576118916113c6565b5b60006118a084828501611867565b91505092915050565b600060608201905081810360008301526118c381866116f1565b905081810360208301526118d781856116f1565b905081810360408301526118eb81846116f1565b9050949350505050565b600081519050919050565b600082825260208201905092915050565b6000819050602082019050919050565b600082825260208201905092915050565b600061193d826116a2565b6119478185611921565b93506119578185602086016116be565b611960816113da565b840191505092915050565b600060808301600083015184820360008601526119888282611932565b915050602083015184820360208601526119a28282611932565b915050604083015184820360408601526119bc8282611932565b915050606083015184820360608601526119d68282611932565b9150508091505092915050565b60006119ef838361196b565b905092915050565b6000602082019050919050565b6000611a0f826118f5565b611a198185611900565b935083602082028501611a2b85611911565b8060005b85811015611a675784840389528151611a4885826119e3565b9450611a53836119f7565b925060208a01995050600181019050611a2f565b50829750879550505050505092915050565b60006020820190508181036000830152611a938184611a04565b905092915050565b600060e0820190508181036000830152611ab5818a6116f1565b90508181036020830152611ac981896116f1565b90508181036040830152611add81886116f1565b90508181036060830152611af181876116f1565b90508181036080830152611b0581866116f1565b905081810360a0830152611b1981856116f1565b905081810360c0830152611b2d81846116f1565b905098975050505050505050565b60008160601b9050919050565b6000611b5382611b3b565b9050919050565b6000611b6582611b48565b9050919050565b611b7d611b788261160d565b611b5a565b82525050565b6000819050919050565b611b9e611b9982611846565b611b83565b82525050565b6000611bb08285611b6c565b601482019150611bc08284611b8d565b6020820191508190509392505050565b600081519050919050565b600081905092915050565b6000611bf182611bd0565b611bfb8185611bdb565b9350611c0b8185602086016116be565b80840191505092915050565b6000611c238284611be6565b915081905092915050565b6000819050919050565b611c4181611c2e565b8114611c4c57600080fd5b50565b600081519050611c5e81611c38565b92915050565b600060208284031215611c7a57611c796113c6565b5b6000611c8884828501611c4f565b91505092915050565b7f4e487b7100000000000000000000000000000000000000000000000000000000600052602260045260246000fd5b60006002820490506001821680611cd857607f821691505b60208210811415611cec57611ceb611c91565b5b50919050565b7f4e487b7100000000000000000000000000000000000000000000000000000000600052603260045260246000fd5b7f4e487b7100000000000000000000000000000000000000000000000000000000600052601160045260246000fd5b6000611d5b82611846565b91507fffffffffffffffffffffffffffffffffffffffffffffffffffffffffffffffff821415611d8e57611d8d611d21565b5b60018201905091905056fea2646970667358221220455261509851ea3367bc5f0768f4f74a8f33ef4f19980e6ba737fe4091e2438364736f6c634300080b0033",
  "immutableReferences": {},
  "source": "pragma solidity ^0.8.11;\n\ncontract SupplyChainStorage {\n    struct cottonHarvester {\n        string fertiliser;\n        string water;\n        string deforestation;\n        string biowaste;\n    }\n\n    struct fabricManufacturer {\n        string water;\n        string electricity;\n        string toxicWaste;\n    }\n\n    struct shirtManufacturer {\n        string manufacturerName;\n        string personInCharge;\n    }\n    address[] public batchNoArray;\n    //SuppyChain contract should contain these\n    cottonHarvester cottonHarvesterData;\n    fabricManufacturer fabricManufacturerData;\n    shirtManufacturer shirtManufacturerData;\n\n    mapping(address => cottonHarvester) batchCottonHarvester;\n    mapping(address => fabricManufacturer) batchFabricManufacturer;\n    mapping(address => shirtManufacturer) batchShirtManufacturer;\n\n    //batchNo is only generated during this function, will be same in the\n    //rest of the structs\n    function setCottonHarvester(\n        string memory _fertiliser,\n        string memory _water,\n        string memory _deforestation,\n        string memory _biowaste\n    ) public returns (address) {\n        //Generates a batchNo based on the senders address and the\n        //time of the transaction\n        // uint tmpData = uint(keccak256(msg.sender, block.timestamp));\n        // address batchNo = address(tmpData);\n\n        address batchNo = address(\n            bytes20(sha256(abi.encodePacked(msg.sender, block.timestamp)))\n        );\n\n        //Setting the basicDetails of the entity\n        cottonHarvesterData.fertiliser = _fertiliser;\n        cottonHarvesterData.water = _water;\n        cottonHarvesterData.deforestation = _deforestation;\n        cottonHarvesterData.biowaste = _biowaste;\n        batchCottonHarvester[batchNo] = cottonHarvesterData;\n        batchNoArray.push(batchNo);\n        return batchNo;\n    }\n\n    function getAllDetails(address batchNo)\n        public\n        returns (\n            string memory _fertiliser,\n            string memory _water,\n            string memory _deforestation,\n            string memory _biowaste,\n            string memory water1,\n            string memory electricity1,\n            string memory toxicWaste1\n        )\n    {\n        cottonHarvester memory tmpData = batchCottonHarvester[batchNo];\n        fabricManufacturer memory tmpData1 = batchFabricManufacturer[batchNo];\n        _fertiliser = tmpData.fertiliser;\n        _water = tmpData.water;\n        _deforestation = tmpData.deforestation;\n        _biowaste = tmpData.biowaste;\n        water1 = tmpData1.water;\n        electricity1 = tmpData1.electricity;\n        toxicWaste1 = tmpData1.toxicWaste;\n        return (\n            _fertiliser,\n            _water,\n            _deforestation,\n            _biowaste,\n            water1,\n            electricity1,\n            toxicWaste1\n        );\n    }\n\n    //Requires the batchNo which is the identifer for the individual structs\n    function getCottonHarvester(address _batchNo)\n        public\n        view\n        returns (\n            string memory fertiliser,\n            string memory water,\n            string memory deforestation,\n            string memory biowaste\n        )\n    {\n        cottonHarvester memory tmpData = batchCottonHarvester[_batchNo];\n\n        return (\n            tmpData.fertiliser,\n            tmpData.water,\n            tmpData.deforestation,\n            tmpData.biowaste\n        );\n    }\n\n    function getAllCottonHarvester()\n        public\n        view\n        returns (cottonHarvester[] memory result)\n    {\n        uint256 length = batchNoArray.length;\n        cottonHarvester[] memory cottonHarvesterArray = new cottonHarvester[](\n            length\n        );\n        for (uint256 i = 0; i < batchNoArray.length; i++) {\n            cottonHarvester memory basicDetail = batchCottonHarvester[\n                batchNoArray[i]\n            ];\n            cottonHarvesterArray[i] = basicDetail;\n        }\n        return cottonHarvesterArray;\n    }\n\n    //Requires the batchNo which is the identifer for the individual structs\n    function getFabricDetails(address _batchNo)\n        public\n        view\n        returns (\n            string memory water,\n            string memory electricity,\n            string memory toxicWaste\n        )\n    {\n        fabricManufacturer memory tmpData = batchFabricManufacturer[_batchNo];\n\n        return (tmpData.water, tmpData.electricity, tmpData.toxicWaste);\n    }\n\n    //Requires the batchNo which is the identifer for the individual structs\n    function setFabricDetails(\n        address batchNo,\n        string memory water,\n        string memory electricity,\n        string memory toxicWaste\n    ) public returns (address) {\n        fabricManufacturerData.water = water;\n        fabricManufacturerData.electricity = electricity;\n        fabricManufacturerData.toxicWaste = toxicWaste;\n        batchFabricManufacturer[batchNo] = fabricManufacturerData;\n    }\n}\n",
  "sourcePath": "/Users/nicholasong/Documents/GitHub/Candour/contracts/SupplyChainStorage.sol",
  "compiler": {
    "name": "solc",
    "version": "0.8.11+commit.d7f03943.Emscripten.clang"
  },
  "schemaVersion": "3.4.3",
  "updatedAt": "2022-04-05T08:56:54.655Z",
  "networkType": "ethereum",
  "devdoc": {
    "kind": "dev",
    "methods": {},
    "version": 1
  },
  "userdoc": {
    "kind": "user",
    "methods": {},
    "version": 1
  }
}